:020000040000FA
:100000000C9462000C948A000C948A000C948A0070
:100010000C948A000C948A000C948A000C948A0038
:100020000C948A000C948A000C948A000C94A80505
:100030000C948A000C948A000C948A000C948A0018
:100040000C945E050C948A000C948A000C948A002F
:100050000C948A000C948A000C948A000C948A00F8
:100060000C9464060C948A00000000002400270011
:100070002A0000000000250028002B0000000000DE
:1000800023002600290004040404040404040202DA
:100090000202020203030303030301020408102007
:1000A0004080010204081020010204081020000012
:1000B0000008000201000003040700000000000027
:1000C0000000830711241FBECFEFD8E0DEBFCDBFF5
:1000D00011E0A0E0B1E0E6E3FEE102C005900D9280
:1000E000A83AB107D9F722E0A8EAB1E001C01D9211
:1000F000AB3BB207E1F710E0C2E6D0E004C02197C5
:10010000FE010E94130FC136D107C9F70E94CB0729
:100110000C94190F0C940000CF92DF92EF92FF9293
:10012000DC01A03282E0B807D4F5A53BB10514F09C
:10013000A4EBB0E04091AC0228E830E0241B310988
:1001400047FD3395220F331F220F331F6901330FF1
:10015000EE08FF084091AD0228E532E0241B31098A
:1001600047FD3395220F331F220F331F032E000C40
:10017000440B550B2C193D094E095F09B7FF02C00E
:10018000B0E0A0E00E94920C24EB30E040E050E0B0
:100190000E94680CC20ED31EE41EF51ED601E0912B
:1001A000AB02EC3080F52091AC0288E890E0821B35
:1001B000910927FD9395880F991F880F991FA817FC
:1001C000B90784F02091AD0288E592E0821B910985
:1001D00027FD9395880F991F880F991FA817B907B6
:1001E0000CF4CD010297880F991F4FB7F8942E2F6A
:1001F00030E0F901EE0FFF1FE20FF31FEA57FD4F4A
:10020000928381834FBFFF90EF90DF90CF9008954E
:10021000833081F028F4813099F08230A9F008957C
:100220008730A9F08830C9F08430B1F48091800023
:100230008F7D03C0809180008F7780938000089528
:1002400084B58F7784BD089584B58F7DFBCF809171
:10025000B0008F778093B00008958091B0008F7DBB
:10026000F9CFCF93DF93282F30E0F901E255FF4F0C
:100270008491F901E656FF4FD491F901EA57FF4FF7
:10028000C491CC23A1F081110E940801EC2FF0E071
:10029000EE0FFF1FE458FF4FA591B491EC91ED23B1
:1002A00081E090E009F480E0DF91CF91089580E053
:1002B00090E0FACF1F93CF93DF93282F30E0F9011E
:1002C000E255FF4F8491F901E656FF4FD491F901B1
:1002D000EA57FF4FC491CC23A9F0162F81110E9439
:1002E0000801EC2FF0E0EE0FFF1FEE58FF4FA59135
:1002F000B4918FB7F894EC91111108C0D095DE231A
:10030000DC938FBFDF91CF911F910895DE2BF8CF43
:10031000CF93DF9390E0FC01E656FF4F24918A577C
:100320009F4FFC0184918823D1F090E0880F991FA2
:10033000FC01E859FF4FA591B491FC01EE58FF4F25
:10034000C591D491623071F49FB7F8943C91822F9B
:10035000809583238C93E8812E2B28839FBFDF9188
:10036000CF9108958FB7F894EC912E2B2C938FBFDB
:10037000F6CF3FB7F8948091760290917702A091E2
:100380007802B091790226B5A89B05C02F3F19F0DD
:100390000196A11DB11D3FBFBA2FA92F982F882705
:1003A000BC01CD01620F711D811D911D42E0660FE0
:1003B000771F881F991F4A95D1F708958F929F92B2
:1003C000AF92BF92CF92DF92EF92FF924B015C010E
:1003D0000E94B9016B017C010E94B9016C197D0971
:1003E0008E099F09683E734081059105A8F321E0BD
:1003F000821A9108A108B10888EEC80E83E0D81EC1
:10040000E11CF11C81149104A104B10429F7FF90AF
:10041000EF90DF90CF90BF90AF909F908F90089516
:100420002FB7F894609172027091730280917402F8
:10043000909175022FBF089508950895AF92BF92CD
:10044000CF92DF92EF92FF920F931F93CF93DF93A0
:100450006C017B018B01040F151FEB015E01AE18CF
:10046000BF08C017D10759F06991D601ED91FC91F1
:100470000190F081E02DC6010995892B79F7C5011E
:10048000DF91CF911F910F91FF90EF90DF90CF9070
:10049000BF90AF90089520911002260F3327331F8D
:1004A00021323105ECF420913402FC0190E080E02F
:1004B000243069F082E00895A09110022191AC01EE
:1004C00040515E4FA40FB52FB11D2C930196861796
:1004D00098F380911002680F6093100280E00895F5
:1004E00081E008951092340281E0809336021092E8
:1004F000350261E082E10E945A0161E083E10E94DD
:100500005A01E9EBF0E080818E7F808380818D7FCE
:10051000808388E48093B80085E48093BC000895CC
:10052000CF93DF9391E09093EF018823B9F0C091CE
:10053000B800D091BA008091BC008A7B8093BC0047
:1005400060E082E10E945A0160E083E10E945A016A
:100550000E947202D093BA00C093B800DF91CF918D
:1005600008950895E091620280916102E81730F4E5
:10057000F0E0E653FE4F808190E008958FEF9FEF0B
:10058000089590916202809161022FEF3FEF9817DA
:1005900048F4E92FF0E0E653FE4F208130E09F5F02
:1005A00090936202C9010895809161029091620264
:1005B000891B990B0895CF92DF92EF92FF920F93D0
:1005C0001F93CF93DF937C01CB018A012091C90156
:1005D000222389F0EB016B01C40ED51ECC15DD057D
:1005E00069F06991D701ED91FC910190F081E02DC6
:1005F000C7010995F3CF642F0E944B02C801DF9118
:10060000CF911F910F91FF90EF90DF90CF900895C1
:10061000CF93DF931F92CDB7DEB769832091C901D5
:100620002223F9F020915F02203258F021E030E0DF
:10063000FC013383228390E080E00F90DF91CF9123
:10064000089580916002E82FF0E0E755FE4F998110
:1006500090838F5F8093600280935F0281E090E0DF
:10066000ECCF61E0CE0101960E944B02F7CFCF9212
:10067000DF92EF92FF920F931F93CF93DF93FC01D2
:10068000C48121E02093C901C093A80110926002A7
:1006900010925F028485682B8AE792E00E9408032B
:1006A000D0915F02D13208F092C00E94B9016B0173
:1006B0007C0180913402811165C082E08093340214
:1006C00081E0809336028FEF8093330210925802BC
:1006D000D0935702A9EAB1E0E7E3F2E080E0D81353
:1006E00085C01092590280915902CC0FC82BC0933B
:1006F000590280913502813009F07CC01092350298
:100700000E94B9016B017C01809159028093BB006A
:100710008091EB019091EC01A091ED01B091EE017F
:10072000892B8A2B8B2B99F00E94B9010091EB0148
:100730001091EC012091ED013091EE016C197D09D1
:100740008E099F090617170728073907E0F18091DE
:10075000BC0083FDD9CF85EC8093BC000E94B90119
:100760006B017C0180913402823009F445C0809194
:1007700033028F3F61F180913302803241F18091E9
:10078000330225C08091EB019091EC01A091ED0125
:10079000B091EE01892B8A2B8B2B09F48ACF0E9412
:1007A000B9010091EB011091EC012091ED01309124
:1007B000EE016C197D098E099F0906171707280796
:1007C000390708F076CF8091EA010E9490021092DA
:1007D000600210925F021092C901DF91CF911F91C8
:1007E0000F91FF90EF90DF90CF9008959D9191939E
:1007F0008F5F75CF85EEB0CF8091EB019091EC01CA
:10080000A091ED01B091EE01892B8A2B8B2B09F47D
:10081000A9CF0E94B9010091EB011091EC01209148
:10082000ED013091EE016C197D098E099F090617C3
:1008300017072807390708F095CFC5CF089590E02E
:1008400080E0089510926D02809106019091070159
:100850008A359105A9F094F0019790930701809350
:10086000060180910601909107010E948C006FE0C3
:1008700070E080E090E00E94DE01E6CF0196EDCFCF
:1008800081E090E090930501809304018AE590E077
:100890000C948C00FC0101900020E9F73197AF0126
:1008A000481B590BBC018EEA92E00C941E028F92F9
:1008B0009F92AF92BF920F931F93CF93DF93CDB7C9
:1008C000DEB7A1970FB6F894DEBF0FBECDBF19A259
:1008D000423008F44AE08E010F5D1F4F842E912CA8
:1008E000B12CA12CA50194010E949A0CE62FB9010C
:1008F000CA01EA30F4F4E05DD801EE938D01232BB8
:10090000242B252B79F790E080E0109719F0CD018A
:100910000E944A04A1960FB6F894DEBF0FBECDBF69
:10092000DF91CF911F910F91BF90AF909F908F90CB
:100930000895E95CE1CF0C944A040F931F93CF9381
:100940008C01C62F0E9437036C2F6460C8010E947F
:1009500037036C2F6B7FC8010E94370383EC90E054
:100960000197F1F7CF911F910F9108950F931F9366
:10097000CF93DF938C01D62FC42F607F642B0E940E
:100980009D0480E1D89FB00111246C2BC801DF9138
:10099000CF911F910F910C949D04CF93DF93CDB70E
:1009A000DEB728970FB6F894DEBF0FBECDBF98E034
:1009B000E9E0F1E0DE01119601900D929A95E1F7E0
:1009C0009091B602981708F48FEF90E0880F991F66
:1009D00021E030E02C0F3D1F820F931FFC0160814E
:1009E000606840E08EEA92E028960FB6F894DEBF89
:1009F0000FBECDBFDF91CF910C94B60440E061E013
:100A00008EEA92E00E94B6048BE39FE10197F1F732
:100A10008091B702882319F080E00C94CD040895EA
:100A200041E00E94B60481E090E0089560E088E033
:100A30000E945A0160E080E10E945A0161E08BE06F
:100A40000E94880160E08BE00C945A0185ED809350
:100A5000BC008091EB019091EC01A091ED01B0916F
:100A6000EE010796A11DB11D23E0B695A7959795B8
:100A700087952A95D1F72091BC0024FD03C01092E0
:100A8000340208954091EB015091EC016091ED0129
:100A90007091EE01452B462B472B69F30097A1057A
:100AA000B10541F02AE22A95F1F700C00197A109AA
:100AB000B109E1CF8091EA010C9490021F920F924C
:100AC0000FB60F9211242F933F938F939F93AF9361
:100AD000BF938091720290917302A0917402B091C1
:100AE00075023091710223E0230F2D3758F50196DE
:100AF000A11DB11D20937102809372029093730225
:100B0000A0937402B093750280917602909177025F
:100B1000A0917802B09179020196A11DB11D809338
:100B2000760290937702A0937802B0937902BF91F6
:100B3000AF919F918F913F912F910F900FBE0F908A
:100B40001F90189526E8230F0296A11DB11DD2CF44
:100B50001F920F920FB60F9211242F933F934F9332
:100B60005F936F937F938F939F93AF93BF93CF9335
:100B7000DF93EF93FF9380915A02C091AA02D0E0D5
:100B800087FF24C0109285001092840080915A0241
:100B90008F5F80935A0280915A02082E000C990BA5
:100BA0008C179D0724F480915A028C30C4F18091F7
:100BB000840090918500049680349C4908F47AC0A2
:100BC0008091840090918500049676C080915A02AD
:100BD000082E000C990B8C179D07C4F6E0915A0261
:100BE0008E2FEE0F990BFC01EE0FFF1FE80FF91F80
:100BF000EA57FD4F808186FFC9CFE0915A028E2FC0
:100C0000EE0F990BFC01EE0FFF1FE80FF91FEA57DB
:100C1000FD4F808160E08F730E945A01B7CF209111
:100C2000840030918500E0915A028E2FEE0F990BCF
:100C3000FC01EE0FFF1FE80FF91FEA57FD4F8181FE
:100C40009281820F931F9093890080938800E09196
:100C50005A028E2FEE0F990BFC01EE0FFF1FE80FCB
:100C6000F91FEA57FD4F808186FF11C0E0915A02BB
:100C70008E2FEE0F990BFC01EE0FFF1FE80FF91FEF
:100C8000EA57FD4F808161E08F730E945A01FF9106
:100C9000EF91DF91CF91BF91AF919F918F917F9114
:100CA0006F915F914F913F912F910F900FBE0F90D9
:100CB0001F90189580E49CE99093890080938800A8
:100CC0008FEF80935A02E3CF1F920F920FB60F92CD
:100CD00011242F933F934F935F936F937F938F9341
:100CE0009F93AF93BF93EF93FF938091B900887F59
:100CF000803609F44AC0F0F5883209F4A7C018F527
:100D0000803109F49BC0B8F4882309F4F9C0883015
:100D100009F494C0FF91EF91BF91AF919F918F9192
:100D20007F916F915F914F913F912F910F900FBEE7
:100D30000F901F901895883109F488C0803251F7C0
:100D40008093330214C0803409F49DC040F4803392
:100D5000B9F38833F9F68093330285ECB0C080355F
:100D600009F485C0883509F496C0883499F60E9444
:100D70002605D0CF883909F48CC038F5883729F09A
:100D800050F4883611F0803729F683E080933402DE
:100D90001092320257C0883809F47BC0803919F0AC
:100DA000803809F0B7CF80913202803208F071C0EC
:100DB000E091320281E08E0F809332028091BB007D
:100DC000F0E0EE5EFD4F80833DC0803B39F0E0F403
:100DD000803A09F479C0883A09F09CCF84E0809386
:100DE00034021092110210921002E0915D02F09113
:100DF0005E0209958091100281110FC081E08093FD
:100E000010021092F00109C0803C09F4A6CF883C82
:100E100009F4A3CF883B09F07DCFE091110281E076
:100E20008E0F80931102F0E0E051FE4F808180939D
:100E3000BB00909111028091100229C0809159024B
:100E40008093BB0085EC8093BC0064CF90915802E6
:100E500080915702981758F5E091580281E08E0F63
:100E600080935802F0E0E95CFD4F8081E9CFE0918A
:100E7000580281E08E0F809358028091BB00F0E011
:100E8000E95CFD4F8083909158028091570298173A
:100E9000C8F285E8D8CFE091580281E08E0F8093A8
:100EA00058028091BB00F0E0E95CFD4F80838091A7
:100EB000360281115CCF81E08093350284EA809311
:100EC000BC001092340226CF85EC8093BC001092B7
:100ED000340280913202803230F4E0913202F0E04C
:100EE000EE5EFD4F10826091320270E0E0915B0295
:100EF000F0915C0282E192E00995109232020ACFF1
:100F00001092330234CF10927D0210927C0288EE50
:100F100093E0A0E0B0E080937E0290937F02A093E4
:100F20008002B093810285E191E090937B028093EF
:100F30007A021092B1021092B00287E291E090938F
:100F4000AF028093AE021092B7028FE38093B20299
:100F500080E18093B80282E08093B9021092BA02D5
:100F60008091AA028C3098F491E0980F9093AA0295
:100F70008093AB0290E0FC01EE0FFF1FE80FF91F1A
:100F8000EA57FD4F88EB9BE09283818308958FEFB2
:100F90008093AB020895789484B5826084BD84B553
:100FA000816084BD85B5826085BD85B5816085BD64
:100FB00080916E00816080936E001092810080911C
:100FC00081008260809381008091810081608093A4
:100FD0008100809180008160809380008091B100C9
:100FE00084608093B1008091B00081608093B000F4
:100FF00080917A00846080937A0080917A00826088
:1010000080937A0080917A00816080937A00809149
:101010007A00806880937A001092C10061E088E0D5
:101020000E94880161E080E10E94880161E08BE01C
:101030000E94880162E08FE00E94880162E089E0FE
:101040000E94880162E08CE00E94880162E08DE0ED
:101050000E94880110926202109261021092600256
:1010600010925F020E9472028CE192E090935E0205
:1010700080935D028DE192E090935C0280935B022D
:101080001092B3028091B902823018F098E09093E8
:10109000B3028093B60262E370E080E090E00E94C9
:1010A000DE016091BA028EEA92E00E94370368EE98
:1010B00073E080E090E00E94DE0160E38EEA92E05F
:1010C0000E949D04CBE4D6E4CE010197F1F760E3E2
:1010D0008EEA92E00E949D042197F1F760E38EEA88
:1010E00092E00E949D0483E592E00197F1F760E2AF
:1010F0008EEA92E00E949D046091B302606240E03B
:101100008EEA92E00E94B60484E08093B40240E04C
:101110006CE08EEA92E00E94B6040E94FE0482E037
:101120008093B50240E066E08EEA92E00E94B60449
:1011300040E062E08EEA92E00E94B6048BE39FE119
:101140000197F1F788E08093BA0260E08EEA92E0BE
:101150000E9437038091AB028C3008F051C061E0EF
:101160008AE00E9488018091AB02282F30E0F901CB
:10117000EE0FFF1FE20FF31FEA57FD4F9081907CA7
:101180009A6090831092AC021092AD022CE0622F14
:101190000E94070F829FB001112430E020E0AB01D4
:1011A000420F531FFA01EE0FFF1FE40FF51FEA571E
:1011B000FD4F908196FD16C02F5F3F4F2C303105BB
:1011C00071F781110FC01092800082E0809381003E
:1011D0001092850010928400B19A80916F00826015
:1011E00080936F00E091AB028E2F90E0FC01EE0F38
:1011F000FF1FE80FF91FEA57FD4F8081806480834D
:101200008AE590E0909307018093060181E090E0E9
:1012100090930501809304018AE590E00E948C0080
:101220000E94160580E00E94CD048FE291E00E94AA
:101230009B0481E00E94CD0480E491E00E949B0425
:1012400060EB74E080E090E00E94DE010E94FE040A
:10125000C1E0D0E080E4882E9924939422242A943B
:10126000322C80927C0080917A00806480937A0096
:1012700080917A0086FDFCCF6091780070917900B2
:10128000072E000C880B990B0E94E00D20E030E047
:1012900040EA50E40E94950E20E030EC4FE754E421
:1012A0000E943D0D20E030E048EC52E40E94950E93
:1012B0002B013C018FE00E9431015C0189E00E941A
:1012C00031016C018CE00E9431017C018DE00E94B3
:1012D00031018C0180910301882371F1AB2861F504
:1012E000B090700262E370E080E090E00E94DE0166
:1012F0008FE00E943101892BF9F4B924B092700279
:10130000BB2009F495C190920801109264021092DA
:10131000630210926D028AE590E09093070180933A
:101320000601D0930501C09304010E948C008FE058
:101330000E943101892BD9F3B09070028091020193
:101340008823F9F0CD28E9F462E370E080E090E0D2
:101350000E94DE0189E00E943101892B91F4BB20BB
:1013600081F080910801892580930801882321F06C
:10137000109264021092630289E00E943101892B6D
:10138000D9F380910101882329F1EF2819F562E34F
:1013900070E080E090E00E94DE018CE00E9431016C
:1013A000892BC1F4BB20B1F080910801811112C0DA
:1013B00080916302909164020196843091050CF053
:1013C00046C190936402809363028CE00E943101D5
:1013D000892BD9F380910001882391F1012B81F5AC
:1013E00062E370E080E090E00E94DE018DE00E9408
:1013F0003101892B29F5BB2019F180916D028925D6
:1014000080936D02882309F427C11092070110927E
:101410000601D0930501C093040190E080E00E9492
:101420008C000E94100260936502709366028093A4
:101430006702909368028DE00E943101892BD9F3F5
:101440008FE00E94310121E0892B09F420E02093F4
:10145000030189E00E94310121E0892B09F420E099
:10146000209302018CE00E94310121E0892B09F4D4
:1014700020E0209301018DE00E94310121E0892BC1
:1014800009F420E020930001809170028111E7C0EF
:1014900010926F0210926E0200916E0210916F0214
:1014A000101611060CF42DC10E94160580917002D1
:1014B000882309F449C080916D02882309F444C04F
:1014C0000E9410020091650210916602209167024D
:1014D00030916802601B710B820B930B6C337105AA
:1014E0008105910588F18091060190910701209175
:1014F000040130910501820F931F843B91050CF08C
:1015000057C1909307018093060180910601909145
:1015100007011816190644F01092070110920601EF
:10152000D0930501C09304018091060190910701B9
:101530000E948C000E941002609365027093660204
:1015400080936702909368020E94100200916902E2
:1015500010916A0220916B0230916C02601B710B3A
:10156000820B930B6C3271408105910508F458C0D1
:1015700000916E0210916F0280E00E94CD0489E418
:1015800091E00E949B04A3019201C301B2010E9459
:10159000020F882309F417C18CE491E00E944A04E9
:1015A00041E06FED8EEA92E00E94B60488E591E09A
:1015B0000E949B048091700281117DC18BE591E0B6
:1015C0000E949B0481E00E94CD0480E791E0011518
:1015D000110561F08AE791E0053611053CF084E8D9
:1015E00091E0093C110514F08EE891E00E949B0403
:1015F00080917002882309F468C180916D0288236C
:1016000009F463C188E991E00E949B040E941002E2
:101610006093690270936A0280936B0290936C02EC
:1016200080E090E0892B09F41CCE0E94000012CECD
:1016300010926F0210926E02109264021092630276
:1016400010926D020E9416050E94220470CE109224
:10165000640210926302B9CE0E942204ECCE809103
:1016600008018823A9F120E030E048EC51E4C301EF
:10167000B2010E94380D87FD41C020E030E048EC07
:1016800051E4C301B2010E94900E87FD0AC020E020
:1016900030E040EF51E4C301B2010E94380D18164A
:1016A00054F520E030E040EF51E4C301B2010E9464
:1016B000900E1816CCF420E030E044E052E4C30170
:1016C000B2010E94380D87FF0FC088EC90E00EC079
:1016D00080916302909164028130910561F08230C3
:1016E000910599F3039751F48FEF90E090936F0277
:1016F00080936E02D1CE84E690E0F8CF90E080E057
:10170000F5CF60E088E00E945A0161E080E10E942C
:101710005A0161E08BE00E9488010F3F110529F416
:1017200061E08BE00E945A01C1CEE9EBF0E08491C8
:10173000833021F148F48130B9F08230D1F00038A3
:10174000110574F760E0EDCF873011F1883041F179
:101750008430A9F78091800080628093800010938C
:101760008B0000938A00A2CE84B5806884BD07BD3B
:101770009DCE84B5806284BD08BD98CE80918000E6
:1017800080688093800010938900009388008ECE3B
:101790008091B00080688093B0000093B30086CE43
:1017A0008091B00080628093B0000093B4007ECE40
:1017B00084EB90E09093070180930601309205013D
:1017C00020920401A2CE73016201E894F7F82FEF92
:1017D0003FEF4FE75FE7C701B6010E94020F81119B
:1017E0000DC02FEF3FEF4FE75FE7C701B6010E9443
:1017F000380D18161CF480E591E0D0CE2FEF3FEFA6
:101800004FE75FE4C301B2010E94900E18161CF46A
:1018100084E591E0C3CE2FEF3FEF4FE75FECC301CC
:10182000B2010E94380D87FDF3CF20E030E0A9011E
:10183000C301B2010E94380D87FF0AC041E06DE28A
:101840008EEA92E00E94B60477FA709477F870946A
:101850002DEC3CEC4CE45DE3C301B2010E94CC0CE6
:101860002B013C010E94AF0D6B017C010E94DE0D3B
:101870009B01AC01C301B2010E94CB0C2B013C01C6
:101880004AE0C701B6010E94570441E06EE28EEAC9
:1018900092E00E94B60420E030E040E251E4C3014F
:1018A000B2010E94950E0E94AF0D90E080E04AE0E8
:1018B0000E94570475CE80910801882319F081E6B3
:1018C00091E07ECE88E691E07BCE8FE991E09CCEE0
:1018D000052E97FB1EF400940E947F0C57FD07D045
:1018E0000E949A0C07FC03D04EF40C947F0C509588
:1018F0004095309521953F4F4F4F5F4F08959095FC
:101900008095709561957F4F8F4F9F4F08950E94EE
:10191000BC0CA59F900DB49F900DA49F800D911DB0
:1019200011240895B7FF0C94870C0E94870C821B2A
:10193000930B0895A1E21A2EAA1BBB1BFD010DC03B
:10194000AA1FBB1FEE1FFF1FA217B307E407F5076F
:1019500020F0A21BB30BE40BF50B661F771F881F4B
:10196000991F1A9469F760957095809590959B01E1
:10197000AC01BD01CF010895A29FB001B39FC0018A
:10198000A39F700D811D1124911DB29F700D811DAB
:101990001124911D08955058BB27AA270E94E30CDB
:1019A0000C94560E0E94480E38F00E944F0E20F004
:1019B00039F49F3F19F426F40C94450E0EF4E0958B
:1019C000E7FB0C943F0EE92F0E94670E58F3BA17FD
:1019D000620773078407950720F079F4A6F50C9445
:1019E000890E0EF4E0950B2EBA2FA02D0B01B90134
:1019F00090010C01CA01A0011124FF27591B99F085
:101A0000593F50F4503E68F11A16F040A22F232F90
:101A1000342F4427585FF3CF469537952795A795E0
:101A2000F0405395C9F77EF41F16BA0B620B730B87
:101A3000840BBAF09150A1F0FF0FBB1F661F771FF8
:101A4000881FC2F70EC0BA0F621F731F841F48F4AD
:101A5000879577956795B795F7959E3F08F0B0CF36
:101A60009395880F08F09927EE0F9795879508951D
:101A70000E941B0E08F481E008950E94510D0C9401
:101A8000560E0E944F0E58F00E94480E40F029F466
:101A90005F3F29F00C943F0E51110C948A0E0C9468
:101AA000450E0E94670E68F39923B1F3552391F315
:101AB000951B550BBB27AA2762177307840738F0BD
:101AC0009F5F5F4F220F331F441FAA1FA9F335D01A
:101AD0000E2E3AF0E0E832D091505040E695001CCE
:101AE000CAF72BD0FE2F29D0660F771F881FBB1F88
:101AF000261737074807AB07B0E809F0BB0B802D66
:101B0000BF01FF2793585F4F3AF09E3F510578F091
:101B10000C943F0E0C948A0E5F3FE4F3983ED4F38E
:101B2000869577956795B795F7959F5FC9F7880F65
:101B3000911D9695879597F90895E1E0660F771FB7
:101B4000881FBB1F621773078407BA0720F0621B48
:101B5000730B840BBA0BEE1F88F7E09508950E9473
:101B60006F0E88F09F5798F0B92F9927B751B0F0B2
:101B7000E1F0660F771F881F991F1AF0BA95C9F711
:101B800014C0B13091F00E94890EB1E008950C9418
:101B9000890E672F782F8827B85F39F0B93FCCF3CB
:101BA000869577956795B395D9F73EF4909580958E
:101BB000709561957F4F8F4F9F4F0895E89409C0AE
:101BC00097FB3EF490958095709561957F4F8F4F70
:101BD0009F4F9923A9F0F92F96E9BB279395F69586
:101BE000879577956795B795F111F8CFFAF4BB0F04
:101BF00011F460FF1BC06F5F7F4F8F4F9F4F16C068
:101C0000882311F096E911C0772321F09EE8872FF1
:101C1000762F05C0662371F096E8862F70E060E0AD
:101C20002AF09A95660F771F881FDAF7880F969526
:101C3000879597F90895990F0008550FAA0BE0E8CA
:101C4000FEEF16161706E807F907C0F0121613067E
:101C5000E407F50798F0621B730B840B950B39F4BE
:101C60000A2661F0232B242B252B21F408950A2624
:101C700009F4A140A6958FEF811D811D089597F964
:101C80009F6780E870E060E008959FEF80EC089522
:101C900000240A941616170618060906089500244B
:101CA0000A9412161306140605060895092E0394C5
:101CB000000C11F4882352F0BB0F40F4BF2B11F439
:101CC00060FF04C06F5F7F4F8F4F9F4F089557FD98
:101CD0009058440F551F59F05F3F71F04795880F9A
:101CE00097FB991F61F09F3F79F087950895121631
:101CF00013061406551FF2CF4695F1DF08C01616DD
:101D000017061806991FF1CF86957105610508948D
:101D10000895E894BB2766277727CB0197F90895A4
:101D20000E941B0E08F48FEF08950E94A80E0C94D9
:101D3000560E0E94480E38F00E944F0E20F0952358
:101D400011F00C943F0E0C94450E11240C948A0E45
:101D50000E94670E70F3959FC1F3950F50E0551FD9
:101D6000629FF001729FBB27F00DB11D639FAA27F0
:101D7000F00DB11DAA1F649F6627B00DA11D661F3F
:101D8000829F2227B00DA11D621F739FB00DA11D60
:101D9000621F839FA00D611D221F749F3327A00D1A
:101DA000611D231F849F600D211D822F762F6A2FB6
:101DB00011249F5750409AF0F1F088234AF0EE0F1B
:101DC000FF1FBB1F661F771F881F91505040A9F748
:101DD0009E3F510580F00C943F0E0C948A0E5F3F9D
:101DE000E4F3983ED4F3869577956795B795F79584
:101DF000E7959F5FC1F7FE2B880F911D96958795FC
:101E000097F908950E941B0E880B990B0895991B52
:101E100079E004C0991F961708F0961B881F7A95E1
:101E2000C9F780950895EE0FFF1F0590F491E02DFE
:101E30000994F894FFCF0101010101005A0001004B
:101E400000400014005400000000000803DB021FE3
:101E500004B102D402C102B2020000000010051E4B
:101E6000021F041E0448452054484F4E4720515538
:101E700041542054440053414E2053414E47005496
:101E80003A006E616E00696E66006F7666004320F0
:101E9000004F46462020004155544F2020004D4120
:101EA0004E55414C20005350443A30202020200011
:101EB0005350443A4C4F572020005350443A4D451C
:101EC000442020005350443A4D415820200053579D
:0E1ED0003A4F4E200053573A4F46462000002E
:107E0000112484B714BE81FFF0D085E080938100F7
:107E100082E08093C00088E18093C10086E0809377
:107E2000C20080E18093C4008EE0C9D0259A86E02C
:107E300020E33CEF91E0309385002093840096BBD3
:107E4000B09BFECF1D9AA8958150A9F7CC24DD24C4
:107E500088248394B5E0AB2EA1E19A2EF3E0BF2EE7
:107E6000A2D0813461F49FD0082FAFD0023811F036
:107E7000013811F484E001C083E08DD089C08234E0
:107E800011F484E103C0853419F485E0A6D080C0E4
:107E9000853579F488D0E82EFF2485D0082F10E0AE
:107EA000102F00270E291F29000F111F8ED06801E7
:107EB0006FC0863521F484E090D080E0DECF843638
:107EC00009F040C070D06FD0082F6DD080E0C81688
:107ED00080E7D80618F4F601B7BEE895C0E0D1E017
:107EE00062D089930C17E1F7F0E0CF16F0E7DF06D8
:107EF00018F0F601B7BEE89568D007B600FCFDCFD4
:107F0000A601A0E0B1E02C9130E011968C91119780
:107F100090E0982F8827822B932B1296FA010C0160
:107F200087BEE89511244E5F5F4FF1E0A038BF0790
:107F300051F7F601A7BEE89507B600FCFDCF97BE46
:107F4000E89526C08437B1F42ED02DD0F82E2BD052
:107F50003CD0F601EF2C8F010F5F1F4F84911BD097
:107F6000EA94F801C1F70894C11CD11CFA94CF0C13
:107F7000D11C0EC0853739F428D08EE10CD085E9AC
:107F80000AD08FE07ACF813511F488E018D01DD067
:107F900080E101D065CF982F8091C00085FFFCCF94
:107FA0009093C60008958091C00087FFFCCF809118
:107FB000C00084FD01C0A8958091C6000895E0E648
:107FC000F0E098E1908380830895EDDF803219F02E
:107FD00088E0F5DFFFCF84E1DECF1F93182FE3DFCA
:107FE0001150E9F7F2DF1F91089580E0E8DFEE27F6
:047FF000FF270994CA
:027FFE00040479
:00000001FF
